:100000000C9434000C9449000C9449000C94490061
:100010000C9449000C9449000C9449000C9449003C
:100020000C9449000C9449000C9449000C947900FC
:100030000C9449000C9449000C9449000C9449001C
:100040000C9449000C9449000C9449000C9449000C
:100050000C9449000C9449000C9449000C944900FC
:100060000C9449000C94490011241FBECFEFD8E036
:10007000DEBFCDBF11E0A0E0B1E0E6E1F2E002C0FA
:1000800005900D92A230B107D9F70E94CA000C94D6
:1000900009010C940000219A82E8809380008BE192
:1000A000809381008EE390E0909387008093860098
:1000B0008FE190E0909389008093880008958EE30B
:1000C00090E0909387008093860008958FE190E000
:1000D00090938900809388000895882331F080915F
:1000E0006F00826080936F00089580916F008D7F14
:1000F000F9CF1F920F920FB60F9211242F933F93B7
:100100004F935F936F937F938F939F93AF93BF931F
:10011000CF93EF93FF938091860090918700C091D9
:100120000001CF9748F4C7FF07C080E00E946D0030
:10013000C195C09300011CC08091860090918700FA
:100140008C0F911DC7FD9A95909387008093860030
:10015000809186009091870096958795909389006D
:100160008093880080918600909187004F9700F7D8
:10017000FF91EF91CF91BF91AF919F918F917F911F
:100180006F915F914F913F912F910F900FBE0F9004
:100190001F901895259A24980E944B00789480E02F
:1001A0002EE330E0A8951C9B1DC02D9A811113C031
:1001B00010928700109286008FE39CE90197F1F777
:1001C00000C00000309387002093860010928500C5
:1001D0001092840081E0EFE9FFE03197F1F700C071
:1001E0000000E0CF2D988130B1F710928700109277
:1001F0008600EFE3FCE93197F1F700C0000030938F
:10020000870020938600109285001092840080E081
:06021000E2CFF894FFCFDD
:020216000200E4
:00000001FF
